{
    "_format": "hh-sol-artifact-1",
    "contractName": "RoboPunksNFT",
    "sourceName": "contracts/MintNFT.sol",
    "abi": [
        {
            "inputs": [],
            "stateMutability": "payable",
            "type": "constructor"
        },
        {
            "anonymous": false,
            "inputs": [
                {
                    "indexed": true,
                    "internalType": "address",
                    "name": "owner",
                    "type": "address"
                },
                {
                    "indexed": true,
                    "internalType": "address",
                    "name": "approved",
                    "type": "address"
                },
                {
                    "indexed": true,
                    "internalType": "uint256",
                    "name": "tokenId",
                    "type": "uint256"
                }
            ],
            "name": "Approval",
            "type": "event"
        },
        {
            "anonymous": false,
            "inputs": [
                {
                    "indexed": true,
                    "internalType": "address",
                    "name": "owner",
                    "type": "address"
                },
                {
                    "indexed": true,
                    "internalType": "address",
                    "name": "operator",
                    "type": "address"
                },
                {
                    "indexed": false,
                    "internalType": "bool",
                    "name": "approved",
                    "type": "bool"
                }
            ],
            "name": "ApprovalForAll",
            "type": "event"
        },
        {
            "anonymous": false,
            "inputs": [
                {
                    "indexed": true,
                    "internalType": "address",
                    "name": "previousOwner",
                    "type": "address"
                },
                {
                    "indexed": true,
                    "internalType": "address",
                    "name": "newOwner",
                    "type": "address"
                }
            ],
            "name": "OwnershipTransferred",
            "type": "event"
        },
        {
            "anonymous": false,
            "inputs": [
                {
                    "indexed": true,
                    "internalType": "address",
                    "name": "from",
                    "type": "address"
                },
                {
                    "indexed": true,
                    "internalType": "address",
                    "name": "to",
                    "type": "address"
                },
                {
                    "indexed": true,
                    "internalType": "uint256",
                    "name": "tokenId",
                    "type": "uint256"
                }
            ],
            "name": "Transfer",
            "type": "event"
        },
        {
            "inputs": [
                {
                    "internalType": "address",
                    "name": "to",
                    "type": "address"
                },
                {
                    "internalType": "uint256",
                    "name": "tokenId",
                    "type": "uint256"
                }
            ],
            "name": "approve",
            "outputs": [],
            "stateMutability": "nonpayable",
            "type": "function"
        },
        {
            "inputs": [
                {
                    "internalType": "address",
                    "name": "owner",
                    "type": "address"
                }
            ],
            "name": "balanceOf",
            "outputs": [
                {
                    "internalType": "uint256",
                    "name": "",
                    "type": "uint256"
                }
            ],
            "stateMutability": "view",
            "type": "function"
        },
        {
            "inputs": [
                {
                    "internalType": "uint256",
                    "name": "tokenId",
                    "type": "uint256"
                }
            ],
            "name": "getApproved",
            "outputs": [
                {
                    "internalType": "address",
                    "name": "",
                    "type": "address"
                }
            ],
            "stateMutability": "view",
            "type": "function"
        },
        {
            "inputs": [
                {
                    "internalType": "address",
                    "name": "owner",
                    "type": "address"
                },
                {
                    "internalType": "address",
                    "name": "operator",
                    "type": "address"
                }
            ],
            "name": "isApprovedForAll",
            "outputs": [
                {
                    "internalType": "bool",
                    "name": "",
                    "type": "bool"
                }
            ],
            "stateMutability": "view",
            "type": "function"
        },
        {
            "inputs": [],
            "name": "isPublicMintEnabled",
            "outputs": [
                {
                    "internalType": "bool",
                    "name": "",
                    "type": "bool"
                }
            ],
            "stateMutability": "view",
            "type": "function"
        },
        {
            "inputs": [],
            "name": "maxPerWallet",
            "outputs": [
                {
                    "internalType": "uint256",
                    "name": "",
                    "type": "uint256"
                }
            ],
            "stateMutability": "view",
            "type": "function"
        },
        {
            "inputs": [],
            "name": "maxSupply",
            "outputs": [
                {
                    "internalType": "uint256",
                    "name": "",
                    "type": "uint256"
                }
            ],
            "stateMutability": "view",
            "type": "function"
        },
        {
            "inputs": [
                {
                    "internalType": "uint256",
                    "name": "_quantity",
                    "type": "uint256"
                }
            ],
            "name": "mint",
            "outputs": [],
            "stateMutability": "payable",
            "type": "function"
        },
        {
            "inputs": [],
            "name": "mintPrice",
            "outputs": [
                {
                    "internalType": "uint256",
                    "name": "",
                    "type": "uint256"
                }
            ],
            "stateMutability": "view",
            "type": "function"
        },
        {
            "inputs": [],
            "name": "name",
            "outputs": [
                {
                    "internalType": "string",
                    "name": "",
                    "type": "string"
                }
            ],
            "stateMutability": "view",
            "type": "function"
        },
        {
            "inputs": [],
            "name": "owner",
            "outputs": [
                {
                    "internalType": "address",
                    "name": "",
                    "type": "address"
                }
            ],
            "stateMutability": "view",
            "type": "function"
        },
        {
            "inputs": [
                {
                    "internalType": "uint256",
                    "name": "tokenId",
                    "type": "uint256"
                }
            ],
            "name": "ownerOf",
            "outputs": [
                {
                    "internalType": "address",
                    "name": "",
                    "type": "address"
                }
            ],
            "stateMutability": "view",
            "type": "function"
        },
        {
            "inputs": [],
            "name": "renounceOwnership",
            "outputs": [],
            "stateMutability": "nonpayable",
            "type": "function"
        },
        {
            "inputs": [
                {
                    "internalType": "address",
                    "name": "from",
                    "type": "address"
                },
                {
                    "internalType": "address",
                    "name": "to",
                    "type": "address"
                },
                {
                    "internalType": "uint256",
                    "name": "tokenId",
                    "type": "uint256"
                }
            ],
            "name": "safeTransferFrom",
            "outputs": [],
            "stateMutability": "nonpayable",
            "type": "function"
        },
        {
            "inputs": [
                {
                    "internalType": "address",
                    "name": "from",
                    "type": "address"
                },
                {
                    "internalType": "address",
                    "name": "to",
                    "type": "address"
                },
                {
                    "internalType": "uint256",
                    "name": "tokenId",
                    "type": "uint256"
                },
                {
                    "internalType": "bytes",
                    "name": "data",
                    "type": "bytes"
                }
            ],
            "name": "safeTransferFrom",
            "outputs": [],
            "stateMutability": "nonpayable",
            "type": "function"
        },
        {
            "inputs": [
                {
                    "internalType": "address",
                    "name": "operator",
                    "type": "address"
                },
                {
                    "internalType": "bool",
                    "name": "approved",
                    "type": "bool"
                }
            ],
            "name": "setApprovalForAll",
            "outputs": [],
            "stateMutability": "nonpayable",
            "type": "function"
        },
        {
            "inputs": [
                {
                    "internalType": "string",
                    "name": "_baseTokenUri",
                    "type": "string"
                }
            ],
            "name": "setBaseTokenUri",
            "outputs": [],
            "stateMutability": "nonpayable",
            "type": "function"
        },
        {
            "inputs": [
                {
                    "internalType": "bool",
                    "name": "_isPublicMintEnabled",
                    "type": "bool"
                }
            ],
            "name": "setIsPublicMintEnabled",
            "outputs": [],
            "stateMutability": "nonpayable",
            "type": "function"
        },
        {
            "inputs": [
                {
                    "internalType": "bytes4",
                    "name": "interfaceId",
                    "type": "bytes4"
                }
            ],
            "name": "supportsInterface",
            "outputs": [
                {
                    "internalType": "bool",
                    "name": "",
                    "type": "bool"
                }
            ],
            "stateMutability": "view",
            "type": "function"
        },
        {
            "inputs": [],
            "name": "symbol",
            "outputs": [
                {
                    "internalType": "string",
                    "name": "",
                    "type": "string"
                }
            ],
            "stateMutability": "view",
            "type": "function"
        },
        {
            "inputs": [
                {
                    "internalType": "uint256",
                    "name": "tokenId",
                    "type": "uint256"
                }
            ],
            "name": "tokenURI",
            "outputs": [
                {
                    "internalType": "string",
                    "name": "",
                    "type": "string"
                }
            ],
            "stateMutability": "view",
            "type": "function"
        },
        {
            "inputs": [
                {
                    "internalType": "uint256",
                    "name": "_tokenId",
                    "type": "uint256"
                }
            ],
            "name": "tokenUri",
            "outputs": [
                {
                    "internalType": "string",
                    "name": "",
                    "type": "string"
                }
            ],
            "stateMutability": "view",
            "type": "function"
        },
        {
            "inputs": [],
            "name": "totalSupply",
            "outputs": [
                {
                    "internalType": "uint256",
                    "name": "",
                    "type": "uint256"
                }
            ],
            "stateMutability": "view",
            "type": "function"
        },
        {
            "inputs": [
                {
                    "internalType": "address",
                    "name": "from",
                    "type": "address"
                },
                {
                    "internalType": "address",
                    "name": "to",
                    "type": "address"
                },
                {
                    "internalType": "uint256",
                    "name": "tokenId",
                    "type": "uint256"
                }
            ],
            "name": "transferFrom",
            "outputs": [],
            "stateMutability": "nonpayable",
            "type": "function"
        },
        {
            "inputs": [
                {
                    "internalType": "address",
                    "name": "newOwner",
                    "type": "address"
                }
            ],
            "name": "transferOwnership",
            "outputs": [],
            "stateMutability": "nonpayable",
            "type": "function"
        },
        {
            "inputs": [
                {
                    "internalType": "address",
                    "name": "",
                    "type": "address"
                }
            ],
            "name": "walletMint",
            "outputs": [
                {
                    "internalType": "uint256",
                    "name": "",
                    "type": "uint256"
                }
            ],
            "stateMutability": "view",
            "type": "function"
        },
        {
            "inputs": [],
            "name": "withdraw",
            "outputs": [],
            "stateMutability": "nonpayable",
            "type": "function"
        },
        {
            "inputs": [],
            "name": "withdrawWallet",
            "outputs": [
                {
                    "internalType": "address payable",
                    "name": "",
                    "type": "address"
                }
            ],
            "stateMutability": "view",
            "type": "function"
        }
    ],
    "bytecode": "0x60806040526040518060400160405280600a81526020017f526f626f7450756e6b73000000000000000000000000000000000000000000008152506040518060400160405280600281526020017f525000000000000000000000000000000000000000000000000000000000000081525081600090816200008191906200042b565b5080600190816200009391906200042b565b505050620000b6620000aa620000e360201b60201c565b620000eb60201b60201c565b66470de4df82000060078190555060006008819055506103e86009819055506003600a8190555062000512565b600033905090565b6000600660009054906101000a900473ffffffffffffffffffffffffffffffffffffffff16905081600660006101000a81548173ffffffffffffffffffffffffffffffffffffffff021916908373ffffffffffffffffffffffffffffffffffffffff1602179055508173ffffffffffffffffffffffffffffffffffffffff168173ffffffffffffffffffffffffffffffffffffffff167f8be0079c531659141344cd1fd0a4f28419497f9722a3daafe3b4186f6b6457e060405160405180910390a35050565b600081519050919050565b7f4e487b7100000000000000000000000000000000000000000000000000000000600052604160045260246000fd5b7f4e487b7100000000000000000000000000000000000000000000000000000000600052602260045260246000fd5b600060028204905060018216806200023357607f821691505b602082108103620002495762000248620001eb565b5b50919050565b60008190508160005260206000209050919050565b60006020601f8301049050919050565b600082821b905092915050565b600060088302620002b37fffffffffffffffffffffffffffffffffffffffffffffffffffffffffffffffff8262000274565b620002bf868362000274565b95508019841693508086168417925050509392505050565b6000819050919050565b6000819050919050565b60006200030c620003066200030084620002d7565b620002e1565b620002d7565b9050919050565b6000819050919050565b6200032883620002eb565b62000340620003378262000313565b84845462000281565b825550505050565b600090565b6200035762000348565b620003648184846200031d565b505050565b5b818110156200038c57620003806000826200034d565b6001810190506200036a565b5050565b601f821115620003db57620003a5816200024f565b620003b08462000264565b81016020851015620003c0578190505b620003d8620003cf8562000264565b83018262000369565b50505b505050565b600082821c905092915050565b60006200040060001984600802620003e0565b1980831691505092915050565b60006200041b8383620003ed565b9150826002028217905092915050565b6200043682620001b1565b67ffffffffffffffff811115620004525762000451620001bc565b5b6200045e82546200021a565b6200046b82828562000390565b600060209050601f831160018114620004a357600084156200048e578287015190505b6200049a85826200040d565b8655506200050a565b601f198416620004b3866200024f565b60005b82811015620004dd57848901518255600182019150602085019450602081019050620004b6565b86831015620004fd5784890151620004f9601f891682620003ed565b8355505b6001600288020188555050505b505050505050565b61376c80620005226000396000f3fe6080604052600436106101b75760003560e01c80636817c76c116100ec578063a0712d681161008a578063c87b56dd11610064578063c87b56dd146105eb578063d5abeb0114610628578063e985e9c514610653578063f2fde38b14610690576101b7565b8063a0712d681461057d578063a22cb46514610599578063b88d4fde146105c2576101b7565b806385d178f4116100c657806385d178f4146104d35780638da5cb5b146104fe57806395652cfa1461052957806395d89b4114610552576101b7565b80636817c76c1461045457806370a082311461047f578063715018a6146104bc576101b7565b806318160ddd116101595780633ccfd60b116101335780633ccfd60b146103ac57806342842e0e146103c3578063453c2310146103ec5780636352211e14610417576101b7565b806318160ddd1461032f5780632373ac221461035a57806323b872dd14610383576101b7565b8063081812fc11610195578063081812fc1461024f578063095ea7b31461028c5780631056ae31146102b55780631675f455146102f2576101b7565b80630116bc2d146101bc57806301ffc9a7146101e757806306fdde0314610224575b600080fd5b3480156101c857600080fd5b506101d16106b9565b6040516101de9190612105565b60405180910390f35b3480156101f357600080fd5b5061020e6004803603810190610209919061218c565b6106cc565b60405161021b9190612105565b60405180910390f35b34801561023057600080fd5b506102396107ae565b6040516102469190612249565b60405180910390f35b34801561025b57600080fd5b50610276600480360381019061027191906122a1565b610840565b604051610283919061230f565b60405180910390f35b34801561029857600080fd5b506102b360048036038101906102ae9190612356565b610886565b005b3480156102c157600080fd5b506102dc60048036038101906102d79190612396565b61099d565b6040516102e991906123d2565b60405180910390f35b3480156102fe57600080fd5b50610319600480360381019061031491906122a1565b6109b5565b6040516103269190612249565b60405180910390f35b34801561033b57600080fd5b50610344610a31565b60405161035191906123d2565b60405180910390f35b34801561036657600080fd5b50610381600480360381019061037c9190612419565b610a37565b005b34801561038f57600080fd5b506103aa60048036038101906103a59190612446565b610a5c565b005b3480156103b857600080fd5b506103c1610abc565b005b3480156103cf57600080fd5b506103ea60048036038101906103e59190612446565b610b95565b005b3480156103f857600080fd5b50610401610bb5565b60405161040e91906123d2565b60405180910390f35b34801561042357600080fd5b5061043e600480360381019061043991906122a1565b610bbb565b60405161044b919061230f565b60405180910390f35b34801561046057600080fd5b50610469610c41565b60405161047691906123d2565b60405180910390f35b34801561048b57600080fd5b506104a660048036038101906104a19190612396565b610c47565b6040516104b391906123d2565b60405180910390f35b3480156104c857600080fd5b506104d1610cfe565b005b3480156104df57600080fd5b506104e8610d12565b6040516104f591906124ba565b60405180910390f35b34801561050a57600080fd5b50610513610d38565b604051610520919061230f565b60405180910390f35b34801561053557600080fd5b50610550600480360381019061054b919061253a565b610d62565b005b34801561055e57600080fd5b50610567610d80565b6040516105749190612249565b60405180910390f35b610597600480360381019061059291906122a1565b610e12565b005b3480156105a557600080fd5b506105c060048036038101906105bb9190612587565b610fdb565b005b3480156105ce57600080fd5b506105e960048036038101906105e491906126f7565b610ff1565b005b3480156105f757600080fd5b50610612600480360381019061060d91906122a1565b611053565b60405161061f9190612249565b60405180910390f35b34801561063457600080fd5b5061063d6110bb565b60405161064a91906123d2565b60405180910390f35b34801561065f57600080fd5b5061067a6004803603810190610675919061277a565b6110c1565b6040516106879190612105565b60405180910390f35b34801561069c57600080fd5b506106b760048036038101906106b29190612396565b611155565b005b600b60009054906101000a900460ff1681565b60007f80ac58cd000000000000000000000000000000000000000000000000000000007bffffffffffffffffffffffffffffffffffffffffffffffffffffffff1916827bffffffffffffffffffffffffffffffffffffffffffffffffffffffff1916148061079757507f5b5e139f000000000000000000000000000000000000000000000000000000007bffffffffffffffffffffffffffffffffffffffffffffffffffffffff1916827bffffffffffffffffffffffffffffffffffffffffffffffffffffffff1916145b806107a757506107a6826111d8565b5b9050919050565b6060600080546107bd906127e9565b80601f01602080910402602001604051908101604052809291908181526020018280546107e9906127e9565b80156108365780601f1061080b57610100808354040283529160200191610836565b820191906000526020600020905b81548152906001019060200180831161081957829003601f168201915b5050505050905090565b600061084b82611242565b6004600083815260200190815260200160002060009054906101000a900473ffffffffffffffffffffffffffffffffffffffff169050919050565b600061089182610bbb565b90508073ffffffffffffffffffffffffffffffffffffffff168373ffffffffffffffffffffffffffffffffffffffff1603610901576040517f08c379a00000000000000000000000000000000000000000000000000000000081526004016108f89061288c565b60405180910390fd5b8073ffffffffffffffffffffffffffffffffffffffff1661092061128d565b73ffffffffffffffffffffffffffffffffffffffff16148061094f575061094e8161094961128d565b6110c1565b5b61098e576040517f08c379a00000000000000000000000000000000000000000000000000000000081526004016109859061291e565b60405180910390fd5b6109988383611295565b505050565b600e6020528060005260406000206000915090505481565b60606109c08261134e565b6109ff576040517f08c379a00000000000000000000000000000000000000000000000000000000081526004016109f69061298a565b60405180910390fd5b600c610a0a8361138f565b604051602001610a1b929190612aca565b6040516020818303038152906040529050919050565b60085481565b610a3f61145d565b80600b60006101000a81548160ff02191690831515021790555050565b610a6d610a6761128d565b826114db565b610aac576040517f08c379a0000000000000000000000000000000000000000000000000000000008152600401610aa390612b6b565b60405180910390fd5b610ab7838383611570565b505050565b610ac461145d565b6000600d60009054906101000a900473ffffffffffffffffffffffffffffffffffffffff1673ffffffffffffffffffffffffffffffffffffffff1647604051610b0c90612bbc565b60006040518083038185875af1925050503d8060008114610b49576040519150601f19603f3d011682016040523d82523d6000602084013e610b4e565b606091505b5050905080610b92576040517f08c379a0000000000000000000000000000000000000000000000000000000008152600401610b8990612c1d565b60405180910390fd5b50565b610bb083838360405180602001604052806000815250610ff1565b505050565b600a5481565b600080610bc783611869565b9050600073ffffffffffffffffffffffffffffffffffffffff168173ffffffffffffffffffffffffffffffffffffffff1603610c38576040517f08c379a0000000000000000000000000000000000000000000000000000000008152600401610c2f90612c89565b60405180910390fd5b80915050919050565b60075481565b60008073ffffffffffffffffffffffffffffffffffffffff168273ffffffffffffffffffffffffffffffffffffffff1603610cb7576040517f08c379a0000000000000000000000000000000000000000000000000000000008152600401610cae90612d1b565b60405180910390fd5b600360008373ffffffffffffffffffffffffffffffffffffffff1673ffffffffffffffffffffffffffffffffffffffff168152602001908152602001600020549050919050565b610d0661145d565b610d1060006118a6565b565b600d60009054906101000a900473ffffffffffffffffffffffffffffffffffffffff1681565b6000600660009054906101000a900473ffffffffffffffffffffffffffffffffffffffff16905090565b610d6a61145d565b8181600c9182610d7b929190612edd565b505050565b606060018054610d8f906127e9565b80601f0160208091040260200160405190810160405280929190818152602001828054610dbb906127e9565b8015610e085780601f10610ddd57610100808354040283529160200191610e08565b820191906000526020600020905b815481529060010190602001808311610deb57829003601f168201915b5050505050905090565b600b60009054906101000a900460ff16610e61576040517f08c379a0000000000000000000000000000000000000000000000000000000008152600401610e5890612ff9565b60405180910390fd5b803414610ea3576040517f08c379a0000000000000000000000000000000000000000000000000000000008152600401610e9a90613065565b60405180910390fd5b60095481600854610eb491906130b4565b10610ef4576040517f08c379a0000000000000000000000000000000000000000000000000000000008152600401610eeb90613134565b60405180910390fd5b600a5481600e60003373ffffffffffffffffffffffffffffffffffffffff1673ffffffffffffffffffffffffffffffffffffffff16815260200190815260200160002054610f4291906130b4565b1115610f83576040517f08c379a0000000000000000000000000000000000000000000000000000000008152600401610f7a906131a0565b60405180910390fd5b60005b81811015610fd75760006001600854610f9f91906130b4565b905060086000815480929190610fb4906131c0565b9190505550610fc3338261196c565b508080610fcf906131c0565b915050610f86565b5050565b610fed610fe661128d565b838361198a565b5050565b611002610ffc61128d565b836114db565b611041576040517f08c379a000000000000000000000000000000000000000000000000000000000815260040161103890612b6b565b60405180910390fd5b61104d84848484611af6565b50505050565b606061105e82611242565b6000611068611b52565b9050600081511161108857604051806020016040528060008152506110b3565b806110928461138f565b6040516020016110a3929190613208565b6040516020818303038152906040525b915050919050565b60095481565b6000600560008473ffffffffffffffffffffffffffffffffffffffff1673ffffffffffffffffffffffffffffffffffffffff16815260200190815260200160002060008373ffffffffffffffffffffffffffffffffffffffff1673ffffffffffffffffffffffffffffffffffffffff16815260200190815260200160002060009054906101000a900460ff16905092915050565b61115d61145d565b600073ffffffffffffffffffffffffffffffffffffffff168173ffffffffffffffffffffffffffffffffffffffff16036111cc576040517f08c379a00000000000000000000000000000000000000000000000000000000081526004016111c39061329e565b60405180910390fd5b6111d5816118a6565b50565b60007f01ffc9a7000000000000000000000000000000000000000000000000000000007bffffffffffffffffffffffffffffffffffffffffffffffffffffffff1916827bffffffffffffffffffffffffffffffffffffffffffffffffffffffff1916149050919050565b61124b8161134e565b61128a576040517f08c379a000000000000000000000000000000000000000000000000000000000815260040161128190612c89565b60405180910390fd5b50565b600033905090565b816004600083815260200190815260200160002060006101000a81548173ffffffffffffffffffffffffffffffffffffffff021916908373ffffffffffffffffffffffffffffffffffffffff160217905550808273ffffffffffffffffffffffffffffffffffffffff1661130883610bbb565b73ffffffffffffffffffffffffffffffffffffffff167f8c5be1e5ebec7d5bd14f71427d1e84f3dd0314c0f7b2291e5b200ac8c7c3b92560405160405180910390a45050565b60008073ffffffffffffffffffffffffffffffffffffffff1661137083611869565b73ffffffffffffffffffffffffffffffffffffffff1614159050919050565b60606000600161139e84611b69565b01905060008167ffffffffffffffff8111156113bd576113bc6125cc565b5b6040519080825280601f01601f1916602001820160405280156113ef5781602001600182028036833780820191505090505b509050600082602001820190505b600115611452578080600190039150507f3031323334353637383961626364656600000000000000000000000000000000600a86061a8153600a8581611446576114456132be565b5b049450600085036113fd575b819350505050919050565b61146561128d565b73ffffffffffffffffffffffffffffffffffffffff16611483610d38565b73ffffffffffffffffffffffffffffffffffffffff16146114d9576040517f08c379a00000000000000000000000000000000000000000000000000000000081526004016114d090613339565b60405180910390fd5b565b6000806114e783610bbb565b90508073ffffffffffffffffffffffffffffffffffffffff168473ffffffffffffffffffffffffffffffffffffffff161480611529575061152881856110c1565b5b8061156757508373ffffffffffffffffffffffffffffffffffffffff1661154f84610840565b73ffffffffffffffffffffffffffffffffffffffff16145b91505092915050565b8273ffffffffffffffffffffffffffffffffffffffff1661159082610bbb565b73ffffffffffffffffffffffffffffffffffffffff16146115e6576040517f08c379a00000000000000000000000000000000000000000000000000000000081526004016115dd906133cb565b60405180910390fd5b600073ffffffffffffffffffffffffffffffffffffffff168273ffffffffffffffffffffffffffffffffffffffff1603611655576040517f08c379a000000000000000000000000000000000000000000000000000000000815260040161164c9061345d565b60405180910390fd5b6116628383836001611cbc565b8273ffffffffffffffffffffffffffffffffffffffff1661168282610bbb565b73ffffffffffffffffffffffffffffffffffffffff16146116d8576040517f08c379a00000000000000000000000000000000000000000000000000000000081526004016116cf906133cb565b60405180910390fd5b6004600082815260200190815260200160002060006101000a81549073ffffffffffffffffffffffffffffffffffffffff02191690556001600360008573ffffffffffffffffffffffffffffffffffffffff1673ffffffffffffffffffffffffffffffffffffffff168152602001908152602001600020600082825403925050819055506001600360008473ffffffffffffffffffffffffffffffffffffffff1673ffffffffffffffffffffffffffffffffffffffff16815260200190815260200160002060008282540192505081905550816002600083815260200190815260200160002060006101000a81548173ffffffffffffffffffffffffffffffffffffffff021916908373ffffffffffffffffffffffffffffffffffffffff160217905550808273ffffffffffffffffffffffffffffffffffffffff168473ffffffffffffffffffffffffffffffffffffffff167fddf252ad1be2c89b69c2b068fc378daa952ba7f163c4a11628f55a4df523b3ef60405160405180910390a46118648383836001611cc2565b505050565b60006002600083815260200190815260200160002060009054906101000a900473ffffffffffffffffffffffffffffffffffffffff169050919050565b6000600660009054906101000a900473ffffffffffffffffffffffffffffffffffffffff16905081600660006101000a81548173ffffffffffffffffffffffffffffffffffffffff021916908373ffffffffffffffffffffffffffffffffffffffff1602179055508173ffffffffffffffffffffffffffffffffffffffff168173ffffffffffffffffffffffffffffffffffffffff167f8be0079c531659141344cd1fd0a4f28419497f9722a3daafe3b4186f6b6457e060405160405180910390a35050565b611986828260405180602001604052806000815250611cc8565b5050565b8173ffffffffffffffffffffffffffffffffffffffff168373ffffffffffffffffffffffffffffffffffffffff16036119f8576040517f08c379a00000000000000000000000000000000000000000000000000000000081526004016119ef906134c9565b60405180910390fd5b80600560008573ffffffffffffffffffffffffffffffffffffffff1673ffffffffffffffffffffffffffffffffffffffff16815260200190815260200160002060008473ffffffffffffffffffffffffffffffffffffffff1673ffffffffffffffffffffffffffffffffffffffff16815260200190815260200160002060006101000a81548160ff0219169083151502179055508173ffffffffffffffffffffffffffffffffffffffff168373ffffffffffffffffffffffffffffffffffffffff167f17307eab39ab6107e8899845ad3d59bd9653f200f220920489ca2b5937696c3183604051611ae99190612105565b60405180910390a3505050565b611b01848484611570565b611b0d84848484611d23565b611b4c576040517f08c379a0000000000000000000000000000000000000000000000000000000008152600401611b439061355b565b60405180910390fd5b50505050565b606060405180602001604052806000815250905090565b600080600090507a184f03e93ff9f4daa797ed6e38ed64bf6a1f0100000000000000008310611bc7577a184f03e93ff9f4daa797ed6e38ed64bf6a1f0100000000000000008381611bbd57611bbc6132be565b5b0492506040810190505b6d04ee2d6d415b85acef81000000008310611c04576d04ee2d6d415b85acef81000000008381611bfa57611bf96132be565b5b0492506020810190505b662386f26fc100008310611c3357662386f26fc100008381611c2957611c286132be565b5b0492506010810190505b6305f5e1008310611c5c576305f5e1008381611c5257611c516132be565b5b0492506008810190505b6127108310611c81576127108381611c7757611c766132be565b5b0492506004810190505b60648310611ca45760648381611c9a57611c996132be565b5b0492506002810190505b600a8310611cb3576001810190505b80915050919050565b50505050565b50505050565b611cd28383611eaa565b611cdf6000848484611d23565b611d1e576040517f08c379a0000000000000000000000000000000000000000000000000000000008152600401611d159061355b565b60405180910390fd5b505050565b6000611d448473ffffffffffffffffffffffffffffffffffffffff166120c7565b15611e9d578373ffffffffffffffffffffffffffffffffffffffff1663150b7a02611d6d61128d565b8786866040518563ffffffff1660e01b8152600401611d8f94939291906135d0565b6020604051808303816000875af1925050508015611dcb57506040513d601f19601f82011682018060405250810190611dc89190613631565b60015b611e4d573d8060008114611dfb576040519150601f19603f3d011682016040523d82523d6000602084013e611e00565b606091505b506000815103611e45576040517f08c379a0000000000000000000000000000000000000000000000000000000008152600401611e3c9061355b565b60405180910390fd5b805181602001fd5b63150b7a0260e01b7bffffffffffffffffffffffffffffffffffffffffffffffffffffffff1916817bffffffffffffffffffffffffffffffffffffffffffffffffffffffff191614915050611ea2565b600190505b949350505050565b600073ffffffffffffffffffffffffffffffffffffffff168273ffffffffffffffffffffffffffffffffffffffff1603611f19576040517f08c379a0000000000000000000000000000000000000000000000000000000008152600401611f10906136aa565b60405180910390fd5b611f228161134e565b15611f62576040517f08c379a0000000000000000000000000000000000000000000000000000000008152600401611f5990613716565b60405180910390fd5b611f70600083836001611cbc565b611f798161134e565b15611fb9576040517f08c379a0000000000000000000000000000000000000000000000000000000008152600401611fb090613716565b60405180910390fd5b6001600360008473ffffffffffffffffffffffffffffffffffffffff1673ffffffffffffffffffffffffffffffffffffffff16815260200190815260200160002060008282540192505081905550816002600083815260200190815260200160002060006101000a81548173ffffffffffffffffffffffffffffffffffffffff021916908373ffffffffffffffffffffffffffffffffffffffff160217905550808273ffffffffffffffffffffffffffffffffffffffff16600073ffffffffffffffffffffffffffffffffffffffff167fddf252ad1be2c89b69c2b068fc378daa952ba7f163c4a11628f55a4df523b3ef60405160405180910390a46120c3600083836001611cc2565b5050565b6000808273ffffffffffffffffffffffffffffffffffffffff163b119050919050565b60008115159050919050565b6120ff816120ea565b82525050565b600060208201905061211a60008301846120f6565b92915050565b6000604051905090565b600080fd5b600080fd5b60007fffffffff0000000000000000000000000000000000000000000000000000000082169050919050565b61216981612134565b811461217457600080fd5b50565b60008135905061218681612160565b92915050565b6000602082840312156121a2576121a161212a565b5b60006121b084828501612177565b91505092915050565b600081519050919050565b600082825260208201905092915050565b60005b838110156121f35780820151818401526020810190506121d8565b60008484015250505050565b6000601f19601f8301169050919050565b600061221b826121b9565b61222581856121c4565b93506122358185602086016121d5565b61223e816121ff565b840191505092915050565b600060208201905081810360008301526122638184612210565b905092915050565b6000819050919050565b61227e8161226b565b811461228957600080fd5b50565b60008135905061229b81612275565b92915050565b6000602082840312156122b7576122b661212a565b5b60006122c58482850161228c565b91505092915050565b600073ffffffffffffffffffffffffffffffffffffffff82169050919050565b60006122f9826122ce565b9050919050565b612309816122ee565b82525050565b60006020820190506123246000830184612300565b92915050565b612333816122ee565b811461233e57600080fd5b50565b6000813590506123508161232a565b92915050565b6000806040838503121561236d5761236c61212a565b5b600061237b85828601612341565b925050602061238c8582860161228c565b9150509250929050565b6000602082840312156123ac576123ab61212a565b5b60006123ba84828501612341565b91505092915050565b6123cc8161226b565b82525050565b60006020820190506123e760008301846123c3565b92915050565b6123f6816120ea565b811461240157600080fd5b50565b600081359050612413816123ed565b92915050565b60006020828403121561242f5761242e61212a565b5b600061243d84828501612404565b91505092915050565b60008060006060848603121561245f5761245e61212a565b5b600061246d86828701612341565b935050602061247e86828701612341565b925050604061248f8682870161228c565b9150509250925092565b60006124a4826122ce565b9050919050565b6124b481612499565b82525050565b60006020820190506124cf60008301846124ab565b92915050565b600080fd5b600080fd5b600080fd5b60008083601f8401126124fa576124f96124d5565b5b8235905067ffffffffffffffff811115612517576125166124da565b5b602083019150836001820283011115612533576125326124df565b5b9250929050565b600080602083850312156125515761255061212a565b5b600083013567ffffffffffffffff81111561256f5761256e61212f565b5b61257b858286016124e4565b92509250509250929050565b6000806040838503121561259e5761259d61212a565b5b60006125ac85828601612341565b92505060206125bd85828601612404565b9150509250929050565b600080fd5b7f4e487b7100000000000000000000000000000000000000000000000000000000600052604160045260246000fd5b612604826121ff565b810181811067ffffffffffffffff82111715612623576126226125cc565b5b80604052505050565b6000612636612120565b905061264282826125fb565b919050565b600067ffffffffffffffff821115612662576126616125cc565b5b61266b826121ff565b9050602081019050919050565b82818337600083830152505050565b600061269a61269584612647565b61262c565b9050828152602081018484840111156126b6576126b56125c7565b5b6126c1848285612678565b509392505050565b600082601f8301126126de576126dd6124d5565b5b81356126ee848260208601612687565b91505092915050565b600080600080608085870312156127115761271061212a565b5b600061271f87828801612341565b945050602061273087828801612341565b93505060406127418782880161228c565b925050606085013567ffffffffffffffff8111156127625761276161212f565b5b61276e878288016126c9565b91505092959194509250565b600080604083850312156127915761279061212a565b5b600061279f85828601612341565b92505060206127b085828601612341565b9150509250929050565b7f4e487b7100000000000000000000000000000000000000000000000000000000600052602260045260246000fd5b6000600282049050600182168061280157607f821691505b602082108103612814576128136127ba565b5b50919050565b7f4552433732313a20617070726f76616c20746f2063757272656e74206f776e6560008201527f7200000000000000000000000000000000000000000000000000000000000000602082015250565b60006128766021836121c4565b91506128818261281a565b604082019050919050565b600060208201905081810360008301526128a581612869565b9050919050565b7f4552433732313a20617070726f76652063616c6c6572206973206e6f7420746f60008201527f6b656e206f776e6572206f7220617070726f76656420666f7220616c6c000000602082015250565b6000612908603d836121c4565b9150612913826128ac565b604082019050919050565b60006020820190508181036000830152612937816128fb565b9050919050565b7f546f6b656e20646f6573206e6f74206578697374000000000000000000000000600082015250565b60006129746014836121c4565b915061297f8261293e565b602082019050919050565b600060208201905081810360008301526129a381612967565b9050919050565b600081905092915050565b60008190508160005260206000209050919050565b600081546129d7816127e9565b6129e181866129aa565b945060018216600081146129fc5760018114612a1157612a44565b60ff1983168652811515820286019350612a44565b612a1a856129b5565b60005b83811015612a3c57815481890152600182019150602081019050612a1d565b838801955050505b50505092915050565b6000612a58826121b9565b612a6281856129aa565b9350612a728185602086016121d5565b80840191505092915050565b7f2e6a736f6e000000000000000000000000000000000000000000000000000000600082015250565b6000612ab46005836129aa565b9150612abf82612a7e565b600582019050919050565b6000612ad682856129ca565b9150612ae28284612a4d565b9150612aed82612aa7565b91508190509392505050565b7f4552433732313a2063616c6c6572206973206e6f7420746f6b656e206f776e6560008201527f72206f7220617070726f76656400000000000000000000000000000000000000602082015250565b6000612b55602d836121c4565b9150612b6082612af9565b604082019050919050565b60006020820190508181036000830152612b8481612b48565b9050919050565b600081905092915050565b50565b6000612ba6600083612b8b565b9150612bb182612b96565b600082019050919050565b6000612bc782612b99565b9150819050919050565b7f7769746864726177206661696c65640000000000000000000000000000000000600082015250565b6000612c07600f836121c4565b9150612c1282612bd1565b602082019050919050565b60006020820190508181036000830152612c3681612bfa565b9050919050565b7f4552433732313a20696e76616c696420746f6b656e2049440000000000000000600082015250565b6000612c736018836121c4565b9150612c7e82612c3d565b602082019050919050565b60006020820190508181036000830152612ca281612c66565b9050919050565b7f4552433732313a2061646472657373207a65726f206973206e6f74206120766160008201527f6c6964206f776e65720000000000000000000000000000000000000000000000602082015250565b6000612d056029836121c4565b9150612d1082612ca9565b604082019050919050565b60006020820190508181036000830152612d3481612cf8565b9050919050565b600082905092915050565b60006020601f8301049050919050565b600082821b905092915050565b600060088302612d937fffffffffffffffffffffffffffffffffffffffffffffffffffffffffffffffff82612d56565b612d9d8683612d56565b95508019841693508086168417925050509392505050565b6000819050919050565b6000612dda612dd5612dd08461226b565b612db5565b61226b565b9050919050565b6000819050919050565b612df483612dbf565b612e08612e0082612de1565b848454612d63565b825550505050565b600090565b612e1d612e10565b612e28818484612deb565b505050565b5b81811015612e4c57612e41600082612e15565b600181019050612e2e565b5050565b601f821115612e9157612e62816129b5565b612e6b84612d46565b81016020851015612e7a578190505b612e8e612e8685612d46565b830182612e2d565b50505b505050565b600082821c905092915050565b6000612eb460001984600802612e96565b1980831691505092915050565b6000612ecd8383612ea3565b9150826002028217905092915050565b612ee78383612d3b565b67ffffffffffffffff811115612f0057612eff6125cc565b5b612f0a82546127e9565b612f15828285612e50565b6000601f831160018114612f445760008415612f32578287013590505b612f3c8582612ec1565b865550612fa4565b601f198416612f52866129b5565b60005b82811015612f7a57848901358255600182019150602085019450602081019050612f55565b86831015612f975784890135612f93601f891682612ea3565b8355505b6001600288020188555050505b50505050505050565b7f6d696e74206973206e6f7420656e61626c656400000000000000000000000000600082015250565b6000612fe36013836121c4565b9150612fee82612fad565b602082019050919050565b6000602082019050818103600083015261301281612fd6565b9050919050565b7f77726f6e67206d696e742076616c756500000000000000000000000000000000600082015250565b600061304f6010836121c4565b915061305a82613019565b602082019050919050565b6000602082019050818103600083015261307e81613042565b9050919050565b7f4e487b7100000000000000000000000000000000000000000000000000000000600052601160045260246000fd5b60006130bf8261226b565b91506130ca8361226b565b92508282019050808211156130e2576130e1613085565b5b92915050565b7f736f6c64206f7574000000000000000000000000000000000000000000000000600082015250565b600061311e6008836121c4565b9150613129826130e8565b602082019050919050565b6000602082019050818103600083015261314d81613111565b9050919050565b7f657863656564206d6178696d756d2077616c6c65740000000000000000000000600082015250565b600061318a6015836121c4565b915061319582613154565b602082019050919050565b600060208201905081810360008301526131b98161317d565b9050919050565b60006131cb8261226b565b91507fffffffffffffffffffffffffffffffffffffffffffffffffffffffffffffffff82036131fd576131fc613085565b5b600182019050919050565b60006132148285612a4d565b91506132208284612a4d565b91508190509392505050565b7f4f776e61626c653a206e6577206f776e657220697320746865207a65726f206160008201527f6464726573730000000000000000000000000000000000000000000000000000602082015250565b60006132886026836121c4565b91506132938261322c565b604082019050919050565b600060208201905081810360008301526132b78161327b565b9050919050565b7f4e487b7100000000000000000000000000000000000000000000000000000000600052601260045260246000fd5b7f4f776e61626c653a2063616c6c6572206973206e6f7420746865206f776e6572600082015250565b60006133236020836121c4565b915061332e826132ed565b602082019050919050565b6000602082019050818103600083015261335281613316565b9050919050565b7f4552433732313a207472616e736665722066726f6d20696e636f72726563742060008201527f6f776e6572000000000000000000000000000000000000000000000000000000602082015250565b60006133b56025836121c4565b91506133c082613359565b604082019050919050565b600060208201905081810360008301526133e4816133a8565b9050919050565b7f4552433732313a207472616e7366657220746f20746865207a65726f2061646460008201527f7265737300000000000000000000000000000000000000000000000000000000602082015250565b60006134476024836121c4565b9150613452826133eb565b604082019050919050565b600060208201905081810360008301526134768161343a565b9050919050565b7f4552433732313a20617070726f766520746f2063616c6c657200000000000000600082015250565b60006134b36019836121c4565b91506134be8261347d565b602082019050919050565b600060208201905081810360008301526134e2816134a6565b9050919050565b7f4552433732313a207472616e7366657220746f206e6f6e20455243373231526560008201527f63656976657220696d706c656d656e7465720000000000000000000000000000602082015250565b60006135456032836121c4565b9150613550826134e9565b604082019050919050565b6000602082019050818103600083015261357481613538565b9050919050565b600081519050919050565b600082825260208201905092915050565b60006135a28261357b565b6135ac8185613586565b93506135bc8185602086016121d5565b6135c5816121ff565b840191505092915050565b60006080820190506135e56000830187612300565b6135f26020830186612300565b6135ff60408301856123c3565b81810360608301526136118184613597565b905095945050505050565b60008151905061362b81612160565b92915050565b6000602082840312156136475761364661212a565b5b60006136558482850161361c565b91505092915050565b7f4552433732313a206d696e7420746f20746865207a65726f2061646472657373600082015250565b60006136946020836121c4565b915061369f8261365e565b602082019050919050565b600060208201905081810360008301526136c381613687565b9050919050565b7f4552433732313a20746f6b656e20616c7265616479206d696e74656400000000600082015250565b6000613700601c836121c4565b915061370b826136ca565b602082019050919050565b6000602082019050818103600083015261372f816136f3565b905091905056fea2646970667358221220b811b565b58edd1c152513a77052f36decade73aed315ed1c1b36fb01fcd332564736f6c63430008120033",
    "linkReferences": {},
    "deployedLinkReferences": {}
}